{
  "_format": "hh-sol-artifact-1",
  "contractName": "userVault",
  "sourceName": "contracts/userVault.sol",
  "abi": [
    {
      "inputs": [],
      "stateMutability": "nonpayable",
      "type": "constructor"
    },
    {
      "inputs": [
        {
          "internalType": "string",
          "name": "_token_name",
          "type": "string"
        },
        {
          "internalType": "string",
          "name": "_token_network",
          "type": "string"
        }
      ],
      "name": "addCreatorTokens",
      "outputs": [],
      "stateMutability": "nonpayable",
      "type": "function"
    },
    {
      "inputs": [
        {
          "internalType": "address",
          "name": "",
          "type": "address"
        }
      ],
      "name": "all_users",
      "outputs": [
        {
          "internalType": "address",
          "name": "creator",
          "type": "address"
        },
        {
          "internalType": "address",
          "name": "next_of_kin",
          "type": "address"
        },
        {
          "internalType": "string",
          "name": "creator_name",
          "type": "string"
        },
        {
          "internalType": "string",
          "name": "next_of_kin_name",
          "type": "string"
        },
        {
          "internalType": "string",
          "name": "next_of_kin_email",
          "type": "string"
        },
        {
          "internalType": "uint256",
          "name": "next_of_kin_phone",
          "type": "uint256"
        },
        {
          "internalType": "uint256",
          "name": "next_of_kin_otp",
          "type": "uint256"
        },
        {
          "internalType": "string",
          "name": "_token_network",
          "type": "string"
        },
        {
          "internalType": "string",
          "name": "_token_name",
          "type": "string"
        }
      ],
      "stateMutability": "view",
      "type": "function"
    },
    {
      "inputs": [
        {
          "internalType": "address",
          "name": "",
          "type": "address"
        },
        {
          "internalType": "uint256",
          "name": "",
          "type": "uint256"
        }
      ],
      "name": "creatorToken",
      "outputs": [
        {
          "internalType": "string",
          "name": "token_network",
          "type": "string"
        },
        {
          "internalType": "string",
          "name": "token_name",
          "type": "string"
        }
      ],
      "stateMutability": "view",
      "type": "function"
    },
    {
      "inputs": [
        {
          "internalType": "address",
          "name": "",
          "type": "address"
        }
      ],
      "name": "currentCreatorTokenIndex",
      "outputs": [
        {
          "internalType": "uint256",
          "name": "",
          "type": "uint256"
        }
      ],
      "stateMutability": "view",
      "type": "function"
    },
    {
      "inputs": [],
      "name": "getAllUsers",
      "outputs": [
        {
          "components": [
            {
              "internalType": "address",
              "name": "creator",
              "type": "address"
            },
            {
              "internalType": "address",
              "name": "next_of_kin",
              "type": "address"
            },
            {
              "internalType": "string",
              "name": "creator_name",
              "type": "string"
            },
            {
              "internalType": "string",
              "name": "next_of_kin_name",
              "type": "string"
            },
            {
              "internalType": "string",
              "name": "next_of_kin_email",
              "type": "string"
            },
            {
              "internalType": "uint256",
              "name": "next_of_kin_phone",
              "type": "uint256"
            },
            {
              "internalType": "uint256",
              "name": "next_of_kin_otp",
              "type": "uint256"
            },
            {
              "internalType": "string",
              "name": "_token_network",
              "type": "string"
            },
            {
              "internalType": "string",
              "name": "_token_name",
              "type": "string"
            }
          ],
          "internalType": "struct userVault.userData[]",
          "name": "",
          "type": "tuple[]"
        }
      ],
      "stateMutability": "view",
      "type": "function"
    },
    {
      "inputs": [],
      "name": "getCreatorTokens",
      "outputs": [
        {
          "components": [
            {
              "internalType": "address",
              "name": "creator",
              "type": "address"
            },
            {
              "internalType": "address",
              "name": "next_of_kin",
              "type": "address"
            },
            {
              "internalType": "string",
              "name": "creator_name",
              "type": "string"
            },
            {
              "internalType": "string",
              "name": "next_of_kin_name",
              "type": "string"
            },
            {
              "internalType": "string",
              "name": "next_of_kin_email",
              "type": "string"
            },
            {
              "internalType": "uint256",
              "name": "next_of_kin_phone",
              "type": "uint256"
            },
            {
              "internalType": "uint256",
              "name": "next_of_kin_otp",
              "type": "uint256"
            },
            {
              "internalType": "string",
              "name": "_token_network",
              "type": "string"
            },
            {
              "internalType": "string",
              "name": "_token_name",
              "type": "string"
            }
          ],
          "internalType": "struct userVault.userData",
          "name": "_userData",
          "type": "tuple"
        },
        {
          "components": [
            {
              "internalType": "string",
              "name": "token_network",
              "type": "string"
            },
            {
              "internalType": "string",
              "name": "token_name",
              "type": "string"
            }
          ],
          "internalType": "struct userVault.CreatorToken[]",
          "name": "_creatorTokens",
          "type": "tuple[]"
        }
      ],
      "stateMutability": "view",
      "type": "function"
    },
    {
      "inputs": [
        {
          "internalType": "string",
          "name": "creator_name",
          "type": "string"
        },
        {
          "internalType": "string",
          "name": "next_of_kin_name",
          "type": "string"
        },
        {
          "internalType": "string",
          "name": "next_of_kin_email",
          "type": "string"
        },
        {
          "internalType": "uint256",
          "name": "_next_of_kin_phone",
          "type": "uint256"
        },
        {
          "internalType": "uint256",
          "name": "_next_of_kin_otp",
          "type": "uint256"
        },
        {
          "internalType": "string",
          "name": "_token_network",
          "type": "string"
        },
        {
          "internalType": "string",
          "name": "_token_name",
          "type": "string"
        }
      ],
      "name": "storeNextOfKinInfo",
      "outputs": [],
      "stateMutability": "nonpayable",
      "type": "function"
    },
    {
      "inputs": [
        {
          "internalType": "uint256",
          "name": "",
          "type": "uint256"
        }
      ],
      "name": "userAccts",
      "outputs": [
        {
          "internalType": "address",
          "name": "creator",
          "type": "address"
        },
        {
          "internalType": "address",
          "name": "next_of_kin",
          "type": "address"
        },
        {
          "internalType": "string",
          "name": "creator_name",
          "type": "string"
        },
        {
          "internalType": "string",
          "name": "next_of_kin_name",
          "type": "string"
        },
        {
          "internalType": "string",
          "name": "next_of_kin_email",
          "type": "string"
        },
        {
          "internalType": "uint256",
          "name": "next_of_kin_phone",
          "type": "uint256"
        },
        {
          "internalType": "uint256",
          "name": "next_of_kin_otp",
          "type": "uint256"
        },
        {
          "internalType": "string",
          "name": "_token_network",
          "type": "string"
        },
        {
          "internalType": "string",
          "name": "_token_name",
          "type": "string"
        }
      ],
      "stateMutability": "view",
      "type": "function"
    }
  ],
  "bytecode": "0x608060405234801561001057600080fd5b506126bd806100206000396000f3fe608060405234801561001057600080fd5b50600436106100885760003560e01c8063bff388e91161005b578063bff388e914610131578063dca4cdbf14610161578063e2842d7914610199578063ed5f4f99146101b757610088565b80630ab2bb131461008d578063528826c6146100c557806385df697c146100e15780638d81681114610112575b600080fd5b6100a760048036038101906100a29190611b3b565b6101d3565b6040516100bc99989796959493929190611c51565b60405180910390f35b6100df60048036038101906100da9190611e96565b610519565b005b6100fb60048036038101906100f69190611ffd565b610a78565b60405161010992919061203d565b60405180910390f35b61011a610bb9565b6040516101289291906122c3565b60405180910390f35b61014b600480360381019061014691906122fa565b6111a9565b6040516101589190612327565b60405180910390f35b61017b600480360381019061017691906122fa565b6111c1565b60405161019099989796959493929190611c51565b60405180910390f35b6101a16114f7565b6040516101ae91906124e5565b60405180910390f35b6101d160048036038101906101cc9190612507565b6118f1565b005b600481815481106101e357600080fd5b90600052602060002090600902016000915090508060000160009054906101000a900473ffffffffffffffffffffffffffffffffffffffff16908060010160009054906101000a900473ffffffffffffffffffffffffffffffffffffffff1690806002018054610252906125ae565b80601f016020809104026020016040519081016040528092919081815260200182805461027e906125ae565b80156102cb5780601f106102a0576101008083540402835291602001916102cb565b820191906000526020600020905b8154815290600101906020018083116102ae57829003601f168201915b5050505050908060030180546102e0906125ae565b80601f016020809104026020016040519081016040528092919081815260200182805461030c906125ae565b80156103595780601f1061032e57610100808354040283529160200191610359565b820191906000526020600020905b81548152906001019060200180831161033c57829003601f168201915b50505050509080600401805461036e906125ae565b80601f016020809104026020016040519081016040528092919081815260200182805461039a906125ae565b80156103e75780601f106103bc576101008083540402835291602001916103e7565b820191906000526020600020905b8154815290600101906020018083116103ca57829003601f168201915b505050505090806005015490806006015490806007018054610408906125ae565b80601f0160208091040260200160405190810160405280929190818152602001828054610434906125ae565b80156104815780601f1061045657610100808354040283529160200191610481565b820191906000526020600020905b81548152906001019060200180831161046457829003601f168201915b505050505090806008018054610496906125ae565b80601f01602080910402602001604051908101604052809291908181526020018280546104c2906125ae565b801561050f5780601f106104e45761010080835404028352916020019161050f565b820191906000526020600020905b8154815290600101906020018083116104f257829003601f168201915b5050505050905089565b6040518061012001604052803373ffffffffffffffffffffffffffffffffffffffff168152602001600073ffffffffffffffffffffffffffffffffffffffff1681526020018b8b8080601f016020809104026020016040519081016040528093929190818152602001838380828437600081840152601f19601f82011690508083019250505050505050815260200189898080601f016020809104026020016040519081016040528093929190818152602001838380828437600081840152601f19601f82011690508083019250505050505050815260200187878080601f016020809104026020016040519081016040528093929190818152602001838380828437600081840152601f19601f82011690508083019250505050505050815260200185815260200184815260200183815260200182815250600360003373ffffffffffffffffffffffffffffffffffffffff1673ffffffffffffffffffffffffffffffffffffffff16815260200190815260200160002060008201518160000160006101000a81548173ffffffffffffffffffffffffffffffffffffffff021916908373ffffffffffffffffffffffffffffffffffffffff16021790555060208201518160010160006101000a81548173ffffffffffffffffffffffffffffffffffffffff021916908373ffffffffffffffffffffffffffffffffffffffff160217905550604082015181600201908051906020019061073b9291906119d6565b5060608201518160030190805190602001906107589291906119d6565b5060808201518160040190805190602001906107759291906119d6565b5060a0820151816005015560c0820151816006015560e08201518160070190805190602001906107a69291906119d6565b506101008201518160080190805190602001906107c49291906119d6565b5090505060046040518061012001604052803373ffffffffffffffffffffffffffffffffffffffff168152602001600073ffffffffffffffffffffffffffffffffffffffff1681526020018c8c8080601f016020809104026020016040519081016040528093929190818152602001838380828437600081840152601f19601f8201169050808301925050505050505081526020018a8a8080601f016020809104026020016040519081016040528093929190818152602001838380828437600081840152601f19601f82011690508083019250505050505050815260200188888080601f016020809104026020016040519081016040528093929190818152602001838380828437600081840152601f19601f82011690508083019250505050505050815260200186815260200185815260200184815260200183815250908060018154018082558091505060019003906000526020600020906009020160009091909190915060008201518160000160006101000a81548173ffffffffffffffffffffffffffffffffffffffff021916908373ffffffffffffffffffffffffffffffffffffffff16021790555060208201518160010160006101000a81548173ffffffffffffffffffffffffffffffffffffffff021916908373ffffffffffffffffffffffffffffffffffffffff16021790555060408201518160020190805190602001906109d69291906119d6565b5060608201518160030190805190602001906109f39291906119d6565b506080820151816004019080519060200190610a109291906119d6565b5060a0820151816005015560c0820151816006015560e0820151816007019080519060200190610a419291906119d6565b50610100820151816008019080519060200190610a5f9291906119d6565b505050610a6c81836118f1565b50505050505050505050565b600160205281600052604060002060205280600052604060002060009150915050806000018054610aa8906125ae565b80601f0160208091040260200160405190810160405280929190818152602001828054610ad4906125ae565b8015610b215780601f10610af657610100808354040283529160200191610b21565b820191906000526020600020905b815481529060010190602001808311610b0457829003601f168201915b505050505090806001018054610b36906125ae565b80601f0160208091040260200160405190810160405280929190818152602001828054610b62906125ae565b8015610baf5780601f10610b8457610100808354040283529160200191610baf565b820191906000526020600020905b815481529060010190602001808311610b9257829003601f168201915b5050505050905082565b610bc1611a5c565b6060600360003373ffffffffffffffffffffffffffffffffffffffff1673ffffffffffffffffffffffffffffffffffffffff168152602001908152602001600020604051806101200160405290816000820160009054906101000a900473ffffffffffffffffffffffffffffffffffffffff1673ffffffffffffffffffffffffffffffffffffffff1673ffffffffffffffffffffffffffffffffffffffff1681526020016001820160009054906101000a900473ffffffffffffffffffffffffffffffffffffffff1673ffffffffffffffffffffffffffffffffffffffff1673ffffffffffffffffffffffffffffffffffffffff168152602001600282018054610cca906125ae565b80601f0160208091040260200160405190810160405280929190818152602001828054610cf6906125ae565b8015610d435780601f10610d1857610100808354040283529160200191610d43565b820191906000526020600020905b815481529060010190602001808311610d2657829003601f168201915b50505050508152602001600382018054610d5c906125ae565b80601f0160208091040260200160405190810160405280929190818152602001828054610d88906125ae565b8015610dd55780601f10610daa57610100808354040283529160200191610dd5565b820191906000526020600020905b815481529060010190602001808311610db857829003601f168201915b50505050508152602001600482018054610dee906125ae565b80601f0160208091040260200160405190810160405280929190818152602001828054610e1a906125ae565b8015610e675780601f10610e3c57610100808354040283529160200191610e67565b820191906000526020600020905b815481529060010190602001808311610e4a57829003601f168201915b505050505081526020016005820154815260200160068201548152602001600782018054610e94906125ae565b80601f0160208091040260200160405190810160405280929190818152602001828054610ec0906125ae565b8015610f0d5780601f10610ee257610100808354040283529160200191610f0d565b820191906000526020600020905b815481529060010190602001808311610ef057829003601f168201915b50505050508152602001600882018054610f26906125ae565b80601f0160208091040260200160405190810160405280929190818152602001828054610f52906125ae565b8015610f9f5780601f10610f7457610100808354040283529160200191610f9f565b820191906000526020600020905b815481529060010190602001808311610f8257829003601f168201915b505050505081525050915060005b600260003373ffffffffffffffffffffffffffffffffffffffff1673ffffffffffffffffffffffffffffffffffffffff168152602001908152602001600020548110156111a457600160003373ffffffffffffffffffffffffffffffffffffffff1673ffffffffffffffffffffffffffffffffffffffff168152602001908152602001600020600082815260200190815260200160002060405180604001604052908160008201805461105f906125ae565b80601f016020809104026020016040519081016040528092919081815260200182805461108b906125ae565b80156110d85780601f106110ad576101008083540402835291602001916110d8565b820191906000526020600020905b8154815290600101906020018083116110bb57829003601f168201915b505050505081526020016001820180546110f1906125ae565b80601f016020809104026020016040519081016040528092919081815260200182805461111d906125ae565b801561116a5780601f1061113f5761010080835404028352916020019161116a565b820191906000526020600020905b81548152906001019060200180831161114d57829003601f168201915b505050505081525050828281518110611186576111856125e0565b5b6020026020010181905250808061119c9061263e565b915050610fad565b509091565b60026020528060005260406000206000915090505481565b60036020528060005260406000206000915090508060000160009054906101000a900473ffffffffffffffffffffffffffffffffffffffff16908060010160009054906101000a900473ffffffffffffffffffffffffffffffffffffffff1690806002018054611230906125ae565b80601f016020809104026020016040519081016040528092919081815260200182805461125c906125ae565b80156112a95780601f1061127e576101008083540402835291602001916112a9565b820191906000526020600020905b81548152906001019060200180831161128c57829003601f168201915b5050505050908060030180546112be906125ae565b80601f01602080910402602001604051908101604052809291908181526020018280546112ea906125ae565b80156113375780601f1061130c57610100808354040283529160200191611337565b820191906000526020600020905b81548152906001019060200180831161131a57829003601f168201915b50505050509080600401805461134c906125ae565b80601f0160208091040260200160405190810160405280929190818152602001828054611378906125ae565b80156113c55780601f1061139a576101008083540402835291602001916113c5565b820191906000526020600020905b8154815290600101906020018083116113a857829003601f168201915b5050505050908060050154908060060154908060070180546113e6906125ae565b80601f0160208091040260200160405190810160405280929190818152602001828054611412906125ae565b801561145f5780601f106114345761010080835404028352916020019161145f565b820191906000526020600020905b81548152906001019060200180831161144257829003601f168201915b505050505090806008018054611474906125ae565b80601f01602080910402602001604051908101604052809291908181526020018280546114a0906125ae565b80156114ed5780601f106114c2576101008083540402835291602001916114ed565b820191906000526020600020905b8154815290600101906020018083116114d057829003601f168201915b5050505050905089565b60606004805480602002602001604051908101604052809291908181526020016000905b828210156118e85783829060005260206000209060090201604051806101200160405290816000820160009054906101000a900473ffffffffffffffffffffffffffffffffffffffff1673ffffffffffffffffffffffffffffffffffffffff1673ffffffffffffffffffffffffffffffffffffffff1681526020016001820160009054906101000a900473ffffffffffffffffffffffffffffffffffffffff1673ffffffffffffffffffffffffffffffffffffffff1673ffffffffffffffffffffffffffffffffffffffff1681526020016002820180546115fb906125ae565b80601f0160208091040260200160405190810160405280929190818152602001828054611627906125ae565b80156116745780601f1061164957610100808354040283529160200191611674565b820191906000526020600020905b81548152906001019060200180831161165757829003601f168201915b5050505050815260200160038201805461168d906125ae565b80601f01602080910402602001604051908101604052809291908181526020018280546116b9906125ae565b80156117065780601f106116db57610100808354040283529160200191611706565b820191906000526020600020905b8154815290600101906020018083116116e957829003601f168201915b5050505050815260200160048201805461171f906125ae565b80601f016020809104026020016040519081016040528092919081815260200182805461174b906125ae565b80156117985780601f1061176d57610100808354040283529160200191611798565b820191906000526020600020905b81548152906001019060200180831161177b57829003601f168201915b5050505050815260200160058201548152602001600682015481526020016007820180546117c5906125ae565b80601f01602080910402602001604051908101604052809291908181526020018280546117f1906125ae565b801561183e5780601f106118135761010080835404028352916020019161183e565b820191906000526020600020905b81548152906001019060200180831161182157829003601f168201915b50505050508152602001600882018054611857906125ae565b80601f0160208091040260200160405190810160405280929190818152602001828054611883906125ae565b80156118d05780601f106118a5576101008083540402835291602001916118d0565b820191906000526020600020905b8154815290600101906020018083116118b357829003601f168201915b5050505050815250508152602001906001019061151b565b50505050905090565b604051806040016040528083815260200182815250600160003373ffffffffffffffffffffffffffffffffffffffff1673ffffffffffffffffffffffffffffffffffffffff1681526020019081526020016000206000600260003373ffffffffffffffffffffffffffffffffffffffff1673ffffffffffffffffffffffffffffffffffffffff16815260200190815260200160002054815260200190815260200160002060008201518160000190805190602001906119b19291906119d6565b5060208201518160010190805190602001906119ce9291906119d6565b509050505050565b8280546119e2906125ae565b90600052602060002090601f016020900481019282611a045760008555611a4b565b82601f10611a1d57805160ff1916838001178555611a4b565b82800160010185558215611a4b579182015b82811115611a4a578251825591602001919060010190611a2f565b5b509050611a589190611ad4565b5090565b604051806101200160405280600073ffffffffffffffffffffffffffffffffffffffff168152602001600073ffffffffffffffffffffffffffffffffffffffff168152602001606081526020016060815260200160608152602001600081526020016000815260200160608152602001606081525090565b5b80821115611aed576000816000905550600101611ad5565b5090565b6000604051905090565b600080fd5b600080fd5b6000819050919050565b611b1881611b05565b8114611b2357600080fd5b50565b600081359050611b3581611b0f565b92915050565b600060208284031215611b5157611b50611afb565b5b6000611b5f84828501611b26565b91505092915050565b600073ffffffffffffffffffffffffffffffffffffffff82169050919050565b6000611b9382611b68565b9050919050565b611ba381611b88565b82525050565b600081519050919050565b600082825260208201905092915050565b60005b83811015611be3578082015181840152602081019050611bc8565b83811115611bf2576000848401525b50505050565b6000601f19601f8301169050919050565b6000611c1482611ba9565b611c1e8185611bb4565b9350611c2e818560208601611bc5565b611c3781611bf8565b840191505092915050565b611c4b81611b05565b82525050565b600061012082019050611c67600083018c611b9a565b611c74602083018b611b9a565b8181036040830152611c86818a611c09565b90508181036060830152611c9a8189611c09565b90508181036080830152611cae8188611c09565b9050611cbd60a0830187611c42565b611cca60c0830186611c42565b81810360e0830152611cdc8185611c09565b9050818103610100830152611cf18184611c09565b90509a9950505050505050505050565b600080fd5b600080fd5b600080fd5b60008083601f840112611d2657611d25611d01565b5b8235905067ffffffffffffffff811115611d4357611d42611d06565b5b602083019150836001820283011115611d5f57611d5e611d0b565b5b9250929050565b600080fd5b7f4e487b7100000000000000000000000000000000000000000000000000000000600052604160045260246000fd5b611da382611bf8565b810181811067ffffffffffffffff82111715611dc257611dc1611d6b565b5b80604052505050565b6000611dd5611af1565b9050611de18282611d9a565b919050565b600067ffffffffffffffff821115611e0157611e00611d6b565b5b611e0a82611bf8565b9050602081019050919050565b82818337600083830152505050565b6000611e39611e3484611de6565b611dcb565b905082815260208101848484011115611e5557611e54611d66565b5b611e60848285611e17565b509392505050565b600082601f830112611e7d57611e7c611d01565b5b8135611e8d848260208601611e26565b91505092915050565b60008060008060008060008060008060e08b8d031215611eb957611eb8611afb565b5b60008b013567ffffffffffffffff811115611ed757611ed6611b00565b5b611ee38d828e01611d10565b9a509a505060208b013567ffffffffffffffff811115611f0657611f05611b00565b5b611f128d828e01611d10565b985098505060408b013567ffffffffffffffff811115611f3557611f34611b00565b5b611f418d828e01611d10565b96509650506060611f548d828e01611b26565b9450506080611f658d828e01611b26565b93505060a08b013567ffffffffffffffff811115611f8657611f85611b00565b5b611f928d828e01611e68565b92505060c08b013567ffffffffffffffff811115611fb357611fb2611b00565b5b611fbf8d828e01611e68565b9150509295989b9194979a5092959850565b611fda81611b88565b8114611fe557600080fd5b50565b600081359050611ff781611fd1565b92915050565b6000806040838503121561201457612013611afb565b5b600061202285828601611fe8565b925050602061203385828601611b26565b9150509250929050565b600060408201905081810360008301526120578185611c09565b9050818103602083015261206b8184611c09565b90509392505050565b61207d81611b88565b82525050565b600082825260208201905092915050565b600061209f82611ba9565b6120a98185612083565b93506120b9818560208601611bc5565b6120c281611bf8565b840191505092915050565b6120d681611b05565b82525050565b6000610120830160008301516120f56000860182612074565b5060208301516121086020860182612074565b50604083015184820360408601526121208282612094565b9150506060830151848203606086015261213a8282612094565b915050608083015184820360808601526121548282612094565b91505060a083015161216960a08601826120cd565b5060c083015161217c60c08601826120cd565b5060e083015184820360e08601526121948282612094565b9150506101008301518482036101008601526121b08282612094565b9150508091505092915050565b600081519050919050565b600082825260208201905092915050565b6000819050602082019050919050565b600060408301600083015184820360008601526122068282612094565b915050602083015184820360208601526122208282612094565b9150508091505092915050565b600061223983836121e9565b905092915050565b6000602082019050919050565b6000612259826121bd565b61226381856121c8565b935083602082028501612275856121d9565b8060005b858110156122b15784840389528151612292858261222d565b945061229d83612241565b925060208a01995050600181019050612279565b50829750879550505050505092915050565b600060408201905081810360008301526122dd81856120dc565b905081810360208301526122f1818461224e565b90509392505050565b6000602082840312156123105761230f611afb565b5b600061231e84828501611fe8565b91505092915050565b600060208201905061233c6000830184611c42565b92915050565b600081519050919050565b600082825260208201905092915050565b6000819050602082019050919050565b6000610120830160008301516123876000860182612074565b50602083015161239a6020860182612074565b50604083015184820360408601526123b28282612094565b915050606083015184820360608601526123cc8282612094565b915050608083015184820360808601526123e68282612094565b91505060a08301516123fb60a08601826120cd565b5060c083015161240e60c08601826120cd565b5060e083015184820360e08601526124268282612094565b9150506101008301518482036101008601526124428282612094565b9150508091505092915050565b600061245b838361236e565b905092915050565b6000602082019050919050565b600061247b82612342565b612485818561234d565b9350836020820285016124978561235e565b8060005b858110156124d357848403895281516124b4858261244f565b94506124bf83612463565b925060208a0199505060018101905061249b565b50829750879550505050505092915050565b600060208201905081810360008301526124ff8184612470565b905092915050565b6000806040838503121561251e5761251d611afb565b5b600083013567ffffffffffffffff81111561253c5761253b611b00565b5b61254885828601611e68565b925050602083013567ffffffffffffffff81111561256957612568611b00565b5b61257585828601611e68565b9150509250929050565b7f4e487b7100000000000000000000000000000000000000000000000000000000600052602260045260246000fd5b600060028204905060018216806125c657607f821691505b602082108114156125da576125d961257f565b5b50919050565b7f4e487b7100000000000000000000000000000000000000000000000000000000600052603260045260246000fd5b7f4e487b7100000000000000000000000000000000000000000000000000000000600052601160045260246000fd5b600061264982611b05565b91507fffffffffffffffffffffffffffffffffffffffffffffffffffffffffffffffff82141561267c5761267b61260f565b5b60018201905091905056fea26469706673582212200d5f8a83006558fa98787bdad2969fd085ce27bd5129df534d571df5c1aae1af64736f6c63430008090033",
  "linkReferences": {},
  "deployedLinkReferences": {}
}