{
  "_format": "hh-sol-artifact-1",
  "contractName": "userVault",
  "sourceName": "contracts/userVault.sol",
  "abi": [
    {
      "inputs": [],
      "stateMutability": "nonpayable",
      "type": "constructor"
    },
    {
      "inputs": [
        {
          "internalType": "address",
          "name": "",
          "type": "address"
        }
      ],
      "name": "currentCreatorTokenIndex",
      "outputs": [
        {
          "internalType": "uint256",
          "name": "",
          "type": "uint256"
        }
      ],
      "stateMutability": "view",
      "type": "function"
    },
    {
      "inputs": [
        {
          "internalType": "address",
          "name": "user",
          "type": "address"
        },
        {
          "internalType": "uint256",
          "name": "startIndex",
          "type": "uint256"
        },
        {
          "internalType": "uint256",
          "name": "endIndex",
          "type": "uint256"
        }
      ],
      "name": "getCreatorTokens",
      "outputs": [
        {
          "components": [
            {
              "internalType": "address",
              "name": "creator",
              "type": "address"
            },
            {
              "internalType": "address",
              "name": "next_of_kin",
              "type": "address"
            },
            {
              "internalType": "string",
              "name": "creator_name",
              "type": "string"
            },
            {
              "internalType": "string",
              "name": "next_of_kin_name",
              "type": "string"
            },
            {
              "internalType": "string",
              "name": "next_of_kin_email",
              "type": "string"
            },
            {
              "internalType": "uint256",
              "name": "next_of_kin_phone",
              "type": "uint256"
            },
            {
              "internalType": "uint256",
              "name": "next_of_kin_otp",
              "type": "uint256"
            }
          ],
          "internalType": "struct userVault.userData",
          "name": "_userData",
          "type": "tuple"
        },
        {
          "components": [
            {
              "internalType": "string",
              "name": "token_network",
              "type": "string"
            },
            {
              "internalType": "string",
              "name": "token_name",
              "type": "string"
            }
          ],
          "internalType": "struct userVault.CreatorToken[]",
          "name": "_creatorTokens",
          "type": "tuple[]"
        }
      ],
      "stateMutability": "view",
      "type": "function"
    },
    {
      "inputs": [
        {
          "internalType": "string",
          "name": "creator_name",
          "type": "string"
        },
        {
          "internalType": "string",
          "name": "next_of_kin_name",
          "type": "string"
        },
        {
          "internalType": "string",
          "name": "next_of_kin_email",
          "type": "string"
        },
        {
          "internalType": "uint256",
          "name": "_next_of_kin_phone",
          "type": "uint256"
        },
        {
          "internalType": "uint256",
          "name": "_next_of_kin_otp",
          "type": "uint256"
        },
        {
          "components": [
            {
              "internalType": "string",
              "name": "token_network",
              "type": "string"
            },
            {
              "internalType": "string",
              "name": "token_name",
              "type": "string"
            }
          ],
          "internalType": "struct userVault.CreatorToken[]",
          "name": "_creatorTokens",
          "type": "tuple[]"
        }
      ],
      "name": "storeNextOfKinInfo",
      "outputs": [],
      "stateMutability": "nonpayable",
      "type": "function"
    },
    {
      "inputs": [
        {
          "internalType": "uint256",
          "name": "",
          "type": "uint256"
        }
      ],
      "name": "userAccts",
      "outputs": [
        {
          "internalType": "address",
          "name": "",
          "type": "address"
        }
      ],
      "stateMutability": "view",
      "type": "function"
    }
  ],
  "bytecode": "0x608060405234801561001057600080fd5b5061165c806100206000396000f3fe608060405234801561001057600080fd5b506004361061004c5760003560e01c80630ab2bb1314610051578063668cec37146100815780636c52893b146100b2578063bff388e9146100ce575b600080fd5b61006b60048036038101906100669190610b6e565b6100fe565b6040516100789190610bdc565b60405180910390f35b61009b60048036038101906100969190610c23565b61013d565b6040516100a9929190610edd565b60405180910390f35b6100cc60048036038101906100c79190610fcf565b610636565b005b6100e860048036038101906100e391906110df565b6108b3565b6040516100f5919061111b565b60405180910390f35b6003818154811061010e57600080fd5b906000526020600020016000915054906101000a900473ffffffffffffffffffffffffffffffffffffffff1681565b610145610a08565b6060600260008673ffffffffffffffffffffffffffffffffffffffff1673ffffffffffffffffffffffffffffffffffffffff1681526020019081526020016000206040518060e00160405290816000820160009054906101000a900473ffffffffffffffffffffffffffffffffffffffff1673ffffffffffffffffffffffffffffffffffffffff1673ffffffffffffffffffffffffffffffffffffffff1681526020016001820160009054906101000a900473ffffffffffffffffffffffffffffffffffffffff1673ffffffffffffffffffffffffffffffffffffffff1673ffffffffffffffffffffffffffffffffffffffff16815260200160028201805461024d90611165565b80601f016020809104026020016040519081016040528092919081815260200182805461027990611165565b80156102c65780601f1061029b576101008083540402835291602001916102c6565b820191906000526020600020905b8154815290600101906020018083116102a957829003601f168201915b505050505081526020016003820180546102df90611165565b80601f016020809104026020016040519081016040528092919081815260200182805461030b90611165565b80156103585780601f1061032d57610100808354040283529160200191610358565b820191906000526020600020905b81548152906001019060200180831161033b57829003601f168201915b5050505050815260200160048201805461037190611165565b80601f016020809104026020016040519081016040528092919081815260200182805461039d90611165565b80156103ea5780601f106103bf576101008083540402835291602001916103ea565b820191906000526020600020905b8154815290600101906020018083116103cd57829003601f168201915b505050505081526020016005820154815260200160068201548152505091506000848461041791906111c6565b90508067ffffffffffffffff811115610433576104326111fa565b5b60405190808252806020026020018201604052801561046c57816020015b610459610a71565b8152602001906001900390816104515790505b50915060008590505b8481101561062c576000803373ffffffffffffffffffffffffffffffffffffffff1673ffffffffffffffffffffffffffffffffffffffff16815260200190815260200160002060008281526020019081526020016000206040518060400160405290816000820180546104e790611165565b80601f016020809104026020016040519081016040528092919081815260200182805461051390611165565b80156105605780601f1061053557610100808354040283529160200191610560565b820191906000526020600020905b81548152906001019060200180831161054357829003601f168201915b5050505050815260200160018201805461057990611165565b80601f01602080910402602001604051908101604052809291908181526020018280546105a590611165565b80156105f25780601f106105c7576101008083540402835291602001916105f2565b820191906000526020600020905b8154815290600101906020018083116105d557829003601f168201915b50505050508152505083828151811061060e5761060d611229565b5b6020026020010181905250808061062490611258565b915050610475565b5050935093915050565b6040518060e001604052803373ffffffffffffffffffffffffffffffffffffffff168152602001600073ffffffffffffffffffffffffffffffffffffffff1681526020018b8b8080601f016020809104026020016040519081016040528093929190818152602001838380828437600081840152601f19601f82011690508083019250505050505050815260200189898080601f016020809104026020016040519081016040528093929190818152602001838380828437600081840152601f19601f82011690508083019250505050505050815260200187878080601f016020809104026020016040519081016040528093929190818152602001838380828437600081840152601f19601f82011690508083019250505050505050815260200185815260200184815250600260003373ffffffffffffffffffffffffffffffffffffffff1673ffffffffffffffffffffffffffffffffffffffff16815260200190815260200160002060008201518160000160006101000a81548173ffffffffffffffffffffffffffffffffffffffff021916908373ffffffffffffffffffffffffffffffffffffffff16021790555060208201518160010160006101000a81548173ffffffffffffffffffffffffffffffffffffffff021916908373ffffffffffffffffffffffffffffffffffffffff160217905550604082015181600201908051906020019061084b929190610a8b565b506060820151816003019080519060200190610868929190610a8b565b506080820151816004019080519060200190610885929190610a8b565b5060a0820151816005015560c082015181600601559050506108a782826108cb565b50505050505050505050565b60016020528060005260406000206000915090505481565b60005b82829050811015610a03578282828181106108ec576108eb611229565b5b90506020028101906108fe91906112b0565b6000803373ffffffffffffffffffffffffffffffffffffffff1673ffffffffffffffffffffffffffffffffffffffff1681526020019081526020016000206000600160003373ffffffffffffffffffffffffffffffffffffffff1673ffffffffffffffffffffffffffffffffffffffff16815260200190815260200160002054815260200190815260200160002081816109989190611618565b905050600160003373ffffffffffffffffffffffffffffffffffffffff1673ffffffffffffffffffffffffffffffffffffffff16815260200190815260200160002060008154809291906109eb90611258565b919050555080806109fb90611258565b9150506108ce565b505050565b6040518060e00160405280600073ffffffffffffffffffffffffffffffffffffffff168152602001600073ffffffffffffffffffffffffffffffffffffffff16815260200160608152602001606081526020016060815260200160008152602001600081525090565b604051806040016040528060608152602001606081525090565b828054610a9790611165565b90600052602060002090601f016020900481019282610ab95760008555610b00565b82601f10610ad257805160ff1916838001178555610b00565b82800160010185558215610b00579182015b82811115610aff578251825591602001919060010190610ae4565b5b509050610b0d9190610b11565b5090565b5b80821115610b2a576000816000905550600101610b12565b5090565b600080fd5b600080fd5b6000819050919050565b610b4b81610b38565b8114610b5657600080fd5b50565b600081359050610b6881610b42565b92915050565b600060208284031215610b8457610b83610b2e565b5b6000610b9284828501610b59565b91505092915050565b600073ffffffffffffffffffffffffffffffffffffffff82169050919050565b6000610bc682610b9b565b9050919050565b610bd681610bbb565b82525050565b6000602082019050610bf16000830184610bcd565b92915050565b610c0081610bbb565b8114610c0b57600080fd5b50565b600081359050610c1d81610bf7565b92915050565b600080600060608486031215610c3c57610c3b610b2e565b5b6000610c4a86828701610c0e565b9350506020610c5b86828701610b59565b9250506040610c6c86828701610b59565b9150509250925092565b610c7f81610bbb565b82525050565b600081519050919050565b600082825260208201905092915050565b60005b83811015610cbf578082015181840152602081019050610ca4565b83811115610cce576000848401525b50505050565b6000601f19601f8301169050919050565b6000610cf082610c85565b610cfa8185610c90565b9350610d0a818560208601610ca1565b610d1381610cd4565b840191505092915050565b610d2781610b38565b82525050565b600060e083016000830151610d456000860182610c76565b506020830151610d586020860182610c76565b5060408301518482036040860152610d708282610ce5565b91505060608301518482036060860152610d8a8282610ce5565b91505060808301518482036080860152610da48282610ce5565b91505060a0830151610db960a0860182610d1e565b5060c0830151610dcc60c0860182610d1e565b508091505092915050565b600081519050919050565b600082825260208201905092915050565b6000819050602082019050919050565b60006040830160008301518482036000860152610e208282610ce5565b91505060208301518482036020860152610e3a8282610ce5565b9150508091505092915050565b6000610e538383610e03565b905092915050565b6000602082019050919050565b6000610e7382610dd7565b610e7d8185610de2565b935083602082028501610e8f85610df3565b8060005b85811015610ecb5784840389528151610eac8582610e47565b9450610eb783610e5b565b925060208a01995050600181019050610e93565b50829750879550505050505092915050565b60006040820190508181036000830152610ef78185610d2d565b90508181036020830152610f0b8184610e68565b90509392505050565b600080fd5b600080fd5b600080fd5b60008083601f840112610f3957610f38610f14565b5b8235905067ffffffffffffffff811115610f5657610f55610f19565b5b602083019150836001820283011115610f7257610f71610f1e565b5b9250929050565b60008083601f840112610f8f57610f8e610f14565b5b8235905067ffffffffffffffff811115610fac57610fab610f19565b5b602083019150836020820283011115610fc857610fc7610f1e565b5b9250929050565b60008060008060008060008060008060c08b8d031215610ff257610ff1610b2e565b5b60008b013567ffffffffffffffff8111156110105761100f610b33565b5b61101c8d828e01610f23565b9a509a505060208b013567ffffffffffffffff81111561103f5761103e610b33565b5b61104b8d828e01610f23565b985098505060408b013567ffffffffffffffff81111561106e5761106d610b33565b5b61107a8d828e01610f23565b9650965050606061108d8d828e01610b59565b945050608061109e8d828e01610b59565b93505060a08b013567ffffffffffffffff8111156110bf576110be610b33565b5b6110cb8d828e01610f79565b92509250509295989b9194979a5092959850565b6000602082840312156110f5576110f4610b2e565b5b600061110384828501610c0e565b91505092915050565b61111581610b38565b82525050565b6000602082019050611130600083018461110c565b92915050565b7f4e487b7100000000000000000000000000000000000000000000000000000000600052602260045260246000fd5b6000600282049050600182168061117d57607f821691505b6020821081141561119157611190611136565b5b50919050565b7f4e487b7100000000000000000000000000000000000000000000000000000000600052601160045260246000fd5b60006111d182610b38565b91506111dc83610b38565b9250828210156111ef576111ee611197565b5b828203905092915050565b7f4e487b7100000000000000000000000000000000000000000000000000000000600052604160045260246000fd5b7f4e487b7100000000000000000000000000000000000000000000000000000000600052603260045260246000fd5b600061126382610b38565b91507fffffffffffffffffffffffffffffffffffffffffffffffffffffffffffffffff82141561129657611295611197565b5b600182019050919050565b600080fd5b600080fd5b600080fd5b6000823560016040038336030381126112cc576112cb6112a1565b5b80830191505092915050565b600080833560016020038436030381126112f5576112f46112a1565b5b80840192508235915067ffffffffffffffff821115611317576113166112a6565b5b602083019250600182023603831315611333576113326112ab565b5b509250929050565b600082905092915050565b60008190508160005260206000209050919050565b60006020601f8301049050919050565b600082821b905092915050565b6000600883026113a87fffffffffffffffffffffffffffffffffffffffffffffffffffffffffffffffff8261136b565b6113b2868361136b565b95508019841693508086168417925050509392505050565b6000819050919050565b60006113ef6113ea6113e584610b38565b6113ca565b610b38565b9050919050565b6000819050919050565b611409836113d4565b61141d611415826113f6565b848454611378565b825550505050565b600090565b611432611425565b61143d818484611400565b505050565b5b818110156114615761145660008261142a565b600181019050611443565b5050565b601f8211156114a65761147781611346565b6114808461135b565b8101602085101561148f578190505b6114a361149b8561135b565b830182611442565b50505b505050565b600082821c905092915050565b60006114c9600019846008026114ab565b1980831691505092915050565b60006114e283836114b8565b9150826002028217905092915050565b6114fc838361133b565b67ffffffffffffffff811115611515576115146111fa565b5b61151f8254611165565b61152a828285611465565b6000601f8311600181146115595760008415611547578287013590505b61155185826114d6565b8655506115b9565b601f19841661156786611346565b60005b8281101561158f5784890135825560018201915060208501945060208101905061156a565b868310156115ac57848901356115a8601f8916826114b8565b8355505b6001600288020188555050505b50505050505050565b6115cd8383836114f2565b505050565b60008101600083016115e481856112d8565b6115ef8183866115c2565b50505050600181016020830161160581856112d8565b6116108183866115c2565b505050505050565b61162282826115d2565b505056fea2646970667358221220862ac73a0627f784c99a6542ad21b08d930dff197f991461d68ae4524f9fbbce64736f6c63430008090033",
  "linkReferences": {},
  "deployedLinkReferences": {}
}